:100000000C945B000C9483000C9483000C9483008C
:100010000C9483000C9483000C9483000C94830054
:100020000C9483000C9483000C9483000C94830044
:100030000C9483000C9483000C9483000C94830034
:100040000C94C0040C9483000C9483000C948300E3
:100050000C9483000C9483000C9483000C94830014
:100060000C9468020C948300000024272A000025C9
:10007000282B000023262904040404040404040299
:100080000202020202030303030303010204081035
:100090002040800102040810200102040810200002
:1000A0000000070002010000030406000000000039
:1000B00000000000F40011241FBECFEFD4E0DEBF2B
:1000C000CDBF11E0A0E0B1E0EEEFFEE002C0059090
:1000D0000D92A832B107D9F711E0A8E2B1E001C052
:1000E0001D92A635B107E1F710E0C6EBD0E004C0E1
:1000F0002297FE010E947907C43BD107C9F70E94ED
:10010000B9040C947D070C9400000895089581E0D3
:100110008093310160932C0110922F0110923001D5
:10012000089581E08093310160932C0110922F019A
:1001300010923001089580912B0190912A01891B22
:10014000089590912A0180912B01981710F080E07A
:100150000895E0912801F0912901E90FF11D8081B6
:100160009F5F90932A0108959C01809134019091A2
:100170003501892B11F190912A0180912B0198175B
:10018000E0F090E00BC0E0912801F0912901EA0F26
:10019000FB1FA20FB31F8C9180839F5FA92FB0E03C
:1001A000A617B70784F310922A0160932B01E09100
:1001B0003401F0913501CB0109950895E0913201A8
:1001C000F0913301309729F010922F0110923001F5
:1001D00009950895709335016093340108957093E3
:1001E00033016093320108950895DF93CF930F9206
:1001F000CDB7DEB76983809131018823A9F0809162
:1002000030018032B0F480912F01E0912D01F09106
:100210002E01E80FF11D608380912F018F5F809385
:100220002F018093300105C061E0CE0101960E944C
:1002300029020F90CF91DF9108950E94F500089553
:10024000EF92FF920F931F93CF93DF937C01262FA2
:10025000042F80913101882361F0372FE90110E0EC
:1002600005C06991C7010E94F5001F5F1017C8F310
:1002700005C0642F822F972F0E942902DF91CF9112
:100280001F910F91FF90EF900895FB0101900020C6
:10029000E9F73197E61BF70B4E2F0E9420010895D6
:1002A00060912D0170912E0121E0409130018091EB
:1002B0002C010E94E40110922F0110923001109243
:1002C00031010895862F413208F040E26091280103
:1002D000709129010E94AE0110922A0180932B0196
:1002E00008950E946201089561E070E080E290E06C
:1002F0000E945206809328019093290110922A01AE
:1003000010922B0161E070E080E290E00E945206C2
:1003100080932D0190932E0110922F0110923001A5
:100320000E94EA0308950F931F938C01862F0E9469
:10033000AA018EED90E00E944B0284EB90E00E94B7
:100340004602C8010E9474011F910F9108950E94F6
:1003500093010895880F8093BA000895982F413231
:1003600010F040E02FC0809137018823E1F781E051
:10037000809337018FEF8093480110923F014093A3
:100380004001990F91609093380185EE8093BC00F5
:10039000809137018130E1F380913F01841710F49F
:1003A00040913F01A0913D01B0913E0120E030E03D
:1003B00007C0FB01E20FF31F8D9180832F5F3F4F3A
:1003C0002417B8F3842F08951F93582F122F41320A
:1003D00010F081E03CC0809137018823E1F782E092
:1003E000809337018FEF8093480110923F01409333
:1003F0004001A0913D01B0913E01FB0102C08191FD
:100400008D938E2F861B8417D0F3852F90E0880F55
:10041000991F8093380185EE8093BC00112321F051
:10042000809137018230E1F3809148018F3F11F4D0
:1004300080E00DC080914801803211F482E007C055
:1004400080914801803311F084E001C083E01F9166
:100450000895482F613210F081E0089580913701AE
:10046000843011F082E0089560934401A09141012D
:10047000B0914201842F9C01F90102C081918D93BA
:100480008E2F841B8617D0F380E0089590933C0153
:1004900080933B01089590933A0180933901089528
:1004A000882311F085EC01C085E88093BC00089595
:1004B00085ED8093BC008091BC0084FDFCCF109240
:1004C0003701089585EC8093BC00109237010895A0
:1004D0001F920F920FB60F9211242F933F934F93B9
:1004E0005F936F937F938F939F93AF93BF93EF939C
:1004F000FF938091B90090E0887F907080369105DD
:1005000009F4E2C081369105CCF58832910509F4F1
:100510007BC089329105B4F48031910509F46FC034
:10052000813191053CF4009709F438C1089709F02E
:1005300040C165C08831910509F466C0809709F013
:1005400038C17FC08034910509F4A3C0813491057E
:1005500044F48033910509F47FC0C89709F029C19C
:1005600086C08035910509F486C08835910509F467
:1005700095C08834910509F01CC19EC08839910549
:1005800009F404C189399105ECF48837910509F41F
:100590009BC0893791054CF48836910509F494C0C5
:1005A0008037910509F005C18FC08838910509F49D
:1005B000EDC08039910509F48DC08038910509F0AE
:1005C000F8C088C0803B910509F4B2C0813B910519
:1005D0004CF4803A910509F491C0883A910509F0EC
:1005E000E8C0A6C0803C910509F4D4C0883C9105C0
:1005F00009F4D0C0883B910509F0DBC0B1C08091FF
:1006000038018093BB00C0C090913F0180914001B0
:10061000981778F490913F01E0913D01F0913E01EF
:10062000E90FF11D80818093BB009F5F90933F0194
:10063000ABC085ED8093BC008091BC0084FDFCCFF5
:10064000B6C080E28093480185ED8093BC00809124
:10065000BC0084FDFCCFABC080E38093480185EDF6
:100660008093BC008091BC0084FDFCCFA0C088E3D7
:10067000809348018FC080913F019091BB00E09131
:100680003D01F0913E01E80FF11D90838F5F809353
:100690003F0190913F018091400174C080913F01E2
:1006A0009091BB00E0913D01F0913E01E80FF11DFA
:1006B00090838F5F80933F0185ED8093BC00809194
:1006C000BC0084FDFCCF73C083E08093370110929F
:1006D00047015AC080914701803208F057C080918D
:1006E00047019091BB00E0914501F0914601E80F70
:1006F000F11D90838F5F8093470146C08091470131
:10070000803248F480914701E0914501F091460123
:10071000E80FF11D108260914701E0913B01F091DB
:100720003C0170E08091450190914601099532C0ED
:1007300084E0809337011092430110924401E091CC
:100740003901F0913A01099580914401882341F4DF
:1007500081E080934401E0914101F09142011082D7
:1007600090914301E0914101F0914201E90FF11DA7
:1007700080818093BB009F5F9093430190914301E0
:1007800080914401981710F485EC01C085E88093AE
:10079000BC000FC085EC8093BC0009C010924801DA
:1007A00085ED8093BC008091BC0084FDFCCF10924D
:1007B0003701FF91EF91BF91AF919F918F917F9101
:1007C0006F915F914F913F912F910F900FBE0F90BE
:1007D0001F90189510923701449A459AE9EBF0E082
:1007E00080818E7F808380818D7F808388E4809369
:1007F000B80085E48093BC0061E070E080E290E0A6
:100800000E94520680933D0190933E0161E070E0AA
:1008100080E290E00E945206809341019093420151
:1008200061E070E080E290E00E9452068093450112
:1008300090934601089561E0809100010E94BB05FC
:1008400068EE73E080E090E00E942B0560E080910C
:1008500000010E94BB0568EE73E080E090E00E941A
:100860002B050895EF92FF920F931F937B0106E3F0
:1008700011E0BC01C8010E949100B701C8010E94AB
:100880001D01C8010E9450011F910F91FF90EF9030
:10089000089563E070E080E590E00E94320443E058
:1008A00050E060E570E086E391E00E94710186E32C
:1008B00091E00E94A1008C3311F481E008950E9420
:1008C0001B0480E008950F931F93CF93DF9308E0FC
:1008D00011E0C3E0D0E060E570E086E391E00E94C3
:1008E0009100BE0186E391E00E941D01F801619133
:1008F00071918F0186E391E00E941D0186E391E0F2
:100900000E94500164E070E080E090E00E942B05BE
:100910002196C031D105F9F6DF91CF911F910F914A
:10092000089580914901882349F060ED77E080E0E7
:1009300090E00E942B051092490108950E946304E3
:100940000E94490480934901682F809100010E9410
:10095000BB05089561E0809100010E949D0560E063
:10096000809100010E94BB0586E391E00E94740122
:1009700008950E9463050E94AA040E949104FDCF7D
:100980001F920F920FB60F9211242F938F939F9364
:10099000AF93BF9380914A0190914B01A0914C017C
:1009A000B0914D018050904CAF4FBF4F80934A01A2
:1009B00090934B01A0934C01B0934D0127C08091BF
:1009C0004A0190914B01A0914C01B0914D0180588A
:1009D0009E43A040B04080934A0190934B01A09366
:1009E0004C01B0934D0180914E0190914F01A09127
:1009F0005001B09151010196A11DB11D80934E018E
:100A000090934F01A0935001B093510180914A01FE
:100A100090914B01A0914C01B0914D0181589E43A2
:100A2000A040B04060F6BF91AF919F918F912F9100
:100A30000F900FBE0F901F9018958FB7F8942091CC
:100A40004E0130914F0140915001509151018FBFA3
:100A5000B901CA010895EF92FF920F931F937B0192
:100A60008C018FB7F89440914E0150914F016091E5
:100A70005001709151018FBF2FB7F89480914E01B2
:100A800090914F01A0915001B09151012FBF841B53
:100A9000950BA60BB70B8E159F05A007B10760F34A
:100AA0001F910F91FF90EF900895019759F0FC016D
:100AB000EE0FFF1FEE0FFF1F32978FB7F89431979D
:100AC000F1F78FBF0895789484B5826084BD84B5B2
:100AD000816084BD85B5826085BD85B5816085BD39
:100AE000EEE6F0E0808181608083E1E8F0E08081E3
:100AF00082608083808181608083E0E8F0E0808193
:100B000081608083E1EBF0E0808184608083E0EBB2
:100B1000F0E0808181608083EAE7F0E0808184609A
:100B200080838081826080838081816080838081F6
:100B3000806880831092C1000895282F30E0C90199
:100B400085579F4FFC01949129583F4FF90184919B
:100B5000882381F0E82FF0E0E859FF4FE491F0E0BE
:100B6000662329F48081909589238083089580816C
:100B7000892B80830895482F50E0CA0181569F4FEA
:100B8000FC012491CA0185579F4FFC01949149585B
:100B90005F4FFA0134913323C1F1222331F1233025
:100BA00021F4809180008F7705C0243031F480914A
:100BB00080008F7D8093800018C0213019F484B5A7
:100BC0008F7704C0223021F484B58F7D84BD0DC0A1
:100BD000263021F48091B0008F7705C0273029F4AA
:100BE0008091B0008F7D8093B000E32FF0E0E35957
:100BF000FF4FE491F0E0662329F4808190958923EA
:100C0000808308958081892B80830895482F50E048
:100C1000CA0181569F4FFC012491CA0185579F4FFD
:100C2000FC01949149585F4FFA013491332319F430
:100C300020E030E035C0222331F1233021F48091CF
:100C400080008F7705C0243031F4809180008F7D43
:100C50008093800018C0213019F484B58F7704C0C8
:100C6000223021F484B58F7D84BD0DC0263021F45F
:100C70008091B0008F7705C0273029F48091B000B3
:100C80008F7D8093B000E32FF0E0EE58FF4FE491AA
:100C9000F0E0808120E030E0892311F021E030E0B5
:100CA000C90108950F931F93CF93DF93689F80012D
:100CB000699F100D789F100D1124C8010E946E06C7
:100CC000EC01009729F0A80160E070E00E94700735
:100CD000CE01DF91CF911F910F910895CF93DF93B4
:100CE000BC018230910510F462E070E0A0915401E3
:100CF000B0915501ED01E0E0F0E040E050E021C0AE
:100D0000888199818617970769F48A819B8130973A
:100D100019F09383828304C090935501809354010A
:100D2000FE0134C06817790738F44115510519F0F0
:100D30008417950708F4AC01FE018A819B819C0110
:100D4000E9012097E9F641155105A9F1CA01861B71
:100D5000970B049708F4BA01E0E0F0E02AC08D9107
:100D60009C91119784179507F9F46417750781F41E
:100D700012968D919C911397309719F093838283EB
:100D800004C09093550180935401FD0132964CC0EC
:100D9000CA01861B970BFD01E80FF91F6193719340
:100DA00002978D939C9340C0FD01828193819C01A9
:100DB000D9011097A1F68091520190915301892B8E
:100DC00041F48091240190912501909353018093E7
:100DD000520140912601509127014115510541F4DE
:100DE0004DB75EB78091220190912301481B590BAA
:100DF0002091520130915301CA01821B930B861737
:100E0000970780F0AB014E5F5F4F8417950750F056
:100E1000420F531F5093530140935201F9016193C4
:100E2000719302C0E0E0F0E0CF01DF91CF9108952F
:100E3000CF93DF93009709F450C0EC0122971B82F7
:100E40001A82A0915401B0915501109709F140E028
:100E500050E0AC17BD0708F1BB83AA83FE012191C6
:100E60003191E20FF31FAE17BF0779F48D919C917A
:100E70001197280F391F2E5F3F4F39832883129611
:100E80008D919C9113979B838A834115510571F431
:100E9000D0935501C093540120C012968D919C911E
:100EA0001397AD01009711F0DC01D3CFFA01D38382
:100EB000C28321913191E20FF31FCE17DF0769F44E
:100EC00088819981280F391F2E5F3F4FFA013183A6
:100ED00020838A819B8193838283DF91CF910895C0
:100EE000DC0101C06D9341505040E0F70895EE0FD2
:0E0EF000FF1F0590F491E02D0994F894FFCFB8
:100EFE000D000100010001003C003C003C003C00E4
:100F0E003C003C00080008000800210021002100E0
:080F1E00FF0020005601000055
:00000001FF
